{
  "contractName": "IdenaTransaction",
  "abi": [
    {
      "constant": true,
      "inputs": [
        {
          "internalType": "bytes",
          "name": "data",
          "type": "bytes"
        }
      ],
      "name": "parseTx",
      "outputs": [
        {
          "internalType": "bytes",
          "name": "to",
          "type": "bytes"
        },
        {
          "internalType": "bytes",
          "name": "amount",
          "type": "bytes"
        },
        {
          "internalType": "bytes",
          "name": "maxFee",
          "type": "bytes"
        },
        {
          "internalType": "bytes",
          "name": "tips",
          "type": "bytes"
        },
        {
          "internalType": "bytes",
          "name": "payload",
          "type": "bytes"
        },
        {
          "internalType": "bytes",
          "name": "signature",
          "type": "bytes"
        },
        {
          "internalType": "bool",
          "name": "useRlp",
          "type": "bool"
        }
      ],
      "payable": false,
      "stateMutability": "pure",
      "type": "function"
    },
    {
      "constant": true,
      "inputs": [
        {
          "internalType": "bytes",
          "name": "data",
          "type": "bytes"
        }
      ],
      "name": "parseTxData",
      "outputs": [
        {
          "internalType": "uint32",
          "name": "",
          "type": "uint32"
        },
        {
          "internalType": "uint32",
          "name": "",
          "type": "uint32"
        },
        {
          "internalType": "uint32",
          "name": "",
          "type": "uint32"
        }
      ],
      "payable": false,
      "stateMutability": "pure",
      "type": "function"
    },
    {
      "constant": true,
      "inputs": [
        {
          "internalType": "uint32",
          "name": "nonce",
          "type": "uint32"
        },
        {
          "internalType": "uint32",
          "name": "epoch",
          "type": "uint32"
        },
        {
          "internalType": "uint32",
          "name": "txType",
          "type": "uint32"
        }
      ],
      "name": "createTxData",
      "outputs": [
        {
          "internalType": "bytes",
          "name": "",
          "type": "bytes"
        }
      ],
      "payable": false,
      "stateMutability": "pure",
      "type": "function"
    },
    {
      "constant": true,
      "inputs": [
        {
          "internalType": "address",
          "name": "a",
          "type": "address"
        },
        {
          "internalType": "bytes",
          "name": "data",
          "type": "bytes"
        }
      ],
      "name": "checkSignature",
      "outputs": [
        {
          "internalType": "bool",
          "name": "",
          "type": "bool"
        }
      ],
      "payable": false,
      "stateMutability": "pure",
      "type": "function"
    },
    {
      "constant": true,
      "inputs": [
        {
          "internalType": "bytes",
          "name": "sig",
          "type": "bytes"
        }
      ],
      "name": "splitSignature",
      "outputs": [
        {
          "internalType": "bytes32",
          "name": "r",
          "type": "bytes32"
        },
        {
          "internalType": "bytes32",
          "name": "s",
          "type": "bytes32"
        },
        {
          "internalType": "uint8",
          "name": "v",
          "type": "uint8"
        }
      ],
      "payable": false,
      "stateMutability": "pure",
      "type": "function"
    }
  ],
  "bytecode": "0x608060405234801561001057600080fd5b50611e12806100206000396000f3fe608060405234801561001057600080fd5b50600436106100575760003560e01c80630601a1c31461005c578063536461bc14610129578063a7bb580314610484578063c670efb914610567578063fec3802314610668575b600080fd5b6100ae6004803603606081101561007257600080fd5b81019080803563ffffffff169060200190929190803563ffffffff169060200190929190803563ffffffff16906020019092919050505061075b565b6040518080602001828103825283818151815260200191508051906020019080838360005b838110156100ee5780820151818401526020810190506100d3565b50505050905090810190601f16801561011b5780820380516001836020036101000a031916815260200191505b509250505060405180910390f35b6101e26004803603602081101561013f57600080fd5b810190808035906020019064010000000081111561015c57600080fd5b82018360208201111561016e57600080fd5b8035906020019184600183028401116401000000008311171561019057600080fd5b91908080601f016020809104026020016040519081016040528093929190818152602001838380828437600081840152601f19601f8201169050808301925050505050505091929192905050506107cc565b604051808060200180602001806020018060200180602001806020018815151515815260200187810387528e818151815260200191508051906020019080838360005b83811015610240578082015181840152602081019050610225565b50505050905090810190601f16801561026d5780820380516001836020036101000a031916815260200191505b5087810386528d818151815260200191508051906020019080838360005b838110156102a657808201518184015260208101905061028b565b50505050905090810190601f1680156102d35780820380516001836020036101000a031916815260200191505b5087810385528c818151815260200191508051906020019080838360005b8381101561030c5780820151818401526020810190506102f1565b50505050905090810190601f1680156103395780820380516001836020036101000a031916815260200191505b5087810384528b818151815260200191508051906020019080838360005b83811015610372578082015181840152602081019050610357565b50505050905090810190601f16801561039f5780820380516001836020036101000a031916815260200191505b5087810383528a818151815260200191508051906020019080838360005b838110156103d85780820151818401526020810190506103bd565b50505050905090810190601f1680156104055780820380516001836020036101000a031916815260200191505b50878103825289818151815260200191508051906020019080838360005b8381101561043e578082015181840152602081019050610423565b50505050905090810190601f16801561046b5780820380516001836020036101000a031916815260200191505b509d505050505050505050505050505060405180910390f35b61053d6004803603602081101561049a57600080fd5b81019080803590602001906401000000008111156104b757600080fd5b8201836020820111156104c957600080fd5b803590602001918460018302840111640100000000831117156104eb57600080fd5b91908080601f016020809104026020016040519081016040528093929190818152602001838380828437600081840152601f19601f82011690508083019250505050505050919291929050505061084d565b604051808481526020018381526020018260ff1660ff168152602001935050505060405180910390f35b6106206004803603602081101561057d57600080fd5b810190808035906020019064010000000081111561059a57600080fd5b8201836020820111156105ac57600080fd5b803590602001918460018302840111640100000000831117156105ce57600080fd5b91908080601f016020809104026020016040519081016040528093929190818152602001838380828437600081840152601f19601f8201169050808301925050505050505091929192905050506108e8565b604051808463ffffffff1663ffffffff1681526020018363ffffffff1663ffffffff1681526020018263ffffffff1663ffffffff168152602001935050505060405180910390f35b6107416004803603604081101561067e57600080fd5b81019080803573ffffffffffffffffffffffffffffffffffffffff169060200190929190803590602001906401000000008111156106bb57600080fd5b8201836020820111156106cd57600080fd5b803590602001918460018302840111640100000000831117156106ef57600080fd5b91908080601f016020809104026020016040519081016040528093929190818152602001838380828437600081840152601f19601f82011690508083019250505050505050919291929050505061091d565b604051808215151515815260200191505060405180910390f35b6060610765611cc1565b8481600001516000019063ffffffff16908163ffffffff16815250508381600001516020019063ffffffff16908163ffffffff16815250508281600001516040019063ffffffff16908163ffffffff16815250506107c281610a0d565b9150509392505050565b60608060608060608060006107df611cc1565b6107e889610a6b565b9050806000015160600151816000015160800151826000015160a00151836000015160c00151846000015160e0015185602001518660400151869650859550849450839350829250819150975097509750975097509750975050919395979092949650565b600080600060418451146108c9576040517f08c379a00000000000000000000000000000000000000000000000000000000081526004018080602001828103825260188152602001807f696e76616c6964207369676e6174757265206c656e677468000000000000000081525060200191505060405180910390fd5b6020840151925060408401519150606084015160001a90509193909250565b60008060006108f5611cea565b6108fe85610a94565b9050806000015181602001518260400151935093509350509193909250565b6000610927611cc1565b61093083610a6b565b905060606109418260000151610abd565b90506000818051906020012090506000806000610961866020015161084d565b925092509250600184601b8301858560405160008152602001604052604051808581526020018460ff1660ff1681526020018381526020018281526020019450505050506020604051602081039080840390855afa1580156109c7573d6000803e3d6000fd5b5050506020604051035173ffffffffffffffffffffffffffffffffffffffff168973ffffffffffffffffffffffffffffffffffffffff1614965050505050505092915050565b606080610a1983610b1b565b6040519080825280601f01601f191660200182016040528015610a4b5781602001600182028038833980820191505090505b5090506000610a5c84602084610b5e565b90508082528192505050919050565b610a73611cc1565b610a7b611cc1565b610a886020848551610bdf565b50905080915050919050565b610a9c611cea565b610aa4611cea565b610ab16020848551610d60565b50905080915050919050565b606080610ac98361103a565b6040519080825280601f01601f191660200182016040528015610afb5781602001600182028038833980820191505090505b5090506000610b0c846020846110eb565b90508082528192505050919050565b600080610b33610b2e846000015161103a565b611226565b60010181019050610b48836020015151611226565b6001018101905060028101905080915050919050565b600080839050610b7260016002868661123a565b84019350610b858560000151858561125e565b84019350610b96600280868661123a565b84019350610ba985602001518585611297565b84019350610bbb60036000868661123a565b84019350610bce856040015185856112f3565b840193508084039150509392505050565b610be7611cc1565b6000610bf1611cc1565b610bf9611d41565b6000806000808a90505b8881018b1015610c9b57610c178b8b611324565b809450819550829650505050818b019a50600015610c3457610c96565b6001841415610c5257610c498b8b8888611370565b8b019a50610c95565b6002841415610c7057610c678b8b888861140b565b8b019a50610c94565b6003841415610c8e57610c858b8b88886114a0565b8b019a50610c93565b600080fd5b5b5b5b610c03565b809a505b8881018b1015610d4c57610cb38b8b611324565b809450819550829650505050818b019a50600015610cd057610d47565b6001841415610cf557610cec8b8b610ce661153b565b88611370565b8b019a50610d46565b6002841415610d1a57610d118b8b610d0b61153b565b8861140b565b8b019a50610d45565b6003841415610d3f57610d368b8b610d3061153b565b886114a0565b8b019a50610d44565b600080fd5b5b5b5b610c9f565b858997509750505050505050935093915050565b610d68611cea565b6000610d72611cea565b610d7a611d63565b6000806000808a90505b8881018b1015610eb757610d988b8b611324565b809450819550829650505050818b019a50600015610db557610eb2565b6001841415610dd357610dca8b8b888861154a565b8b019a50610eb1565b6002841415610df157610de88b8b88886115ed565b8b019a50610eb0565b6003841415610e0f57610e068b8b8888611690565b8b019a50610eaf565b6004841415610e2d57610e248b8b8888611733565b8b019a50610eae565b6005841415610e4b57610e428b8b88886117c8565b8b019a50610ead565b6006841415610e6957610e608b8b888861185d565b8b019a50610eac565b6007841415610e8757610e7e8b8b88886118f2565b8b019a50610eab565b6008841415610ea557610e9c8b8b8888611987565b8b019a50610eaa565b600080fd5b5b5b5b5b5b5b5b5b610d84565b809a505b8881018b101561102657610ecf8b8b611324565b809450819550829650505050818b019a50600015610eec57611021565b6001841415610f1157610f088b8b610f02611a1c565b8861154a565b8b019a50611020565b6002841415610f3657610f2d8b8b610f27611a1c565b886115ed565b8b019a5061101f565b6003841415610f5b57610f528b8b610f4c611a1c565b88611690565b8b019a5061101e565b6004841415610f8057610f778b8b610f71611a1c565b88611733565b8b019a5061101d565b6005841415610fa557610f9c8b8b610f96611a1c565b886117c8565b8b019a5061101c565b6006841415610fca57610fc18b8b610fbb611a1c565b8861185d565b8b019a5061101b565b6007841415610fef57610fe68b8b610fe0611a1c565b886118f2565b8b019a5061101a565b60088414156110145761100b8b8b611005611a1c565b88611987565b8b019a50611019565b600080fd5b5b5b5b5b5b5b5b5b610ebb565b858997509750505050505050935093915050565b60008061104a8360000151611a2b565b6001018101905061105e8360200151611a2b565b600101810190506110728360400151611a2b565b60010181019050611087836060015151611226565b6001018101905061109c836080015151611226565b600101810190506110b18360a0015151611226565b600101810190506110c68360c0015151611226565b600101810190506110db8360e0015151611226565b6001018101905080915050919050565b6000808390506110ff60016000868661123a565b8401935061111285600001518585611a43565b8401935061112460026000868661123a565b8401935061113785602001518585611a43565b8401935061114960036000868661123a565b8401935061115c85604001518585611a43565b8401935061116e60046002868661123a565b8401935061118185606001518585611297565b8401935061119360056002868661123a565b840193506111a685608001518585611297565b840193506111b860066002868661123a565b840193506111cb8560a001518585611297565b840193506111dd60076002868661123a565b840193506111f08560c001518585611297565b8401935061120260086002868661123a565b840193506112158560e001518585611297565b840193508084039150509392505050565b600061123182611a5f565b82019050919050565b6000806008850660088702179050611253818585611a8c565b915050949350505050565b6000808390506112776112708661103a565b8585611a8c565b840193506112868585856110eb565b840193508084039150509392505050565b6000808451905060006112ab828686611a8c565b905060008090508186018501602088015b848310156112e257805160001a82536001820191506001810190506001830192506112bc565b505080820193505050509392505050565b6000831561130e5761130760018484611a8c565b905061131d565b61131a60008484611a8c565b90505b9392505050565b60008060008060006113368787611afd565b91509150600060078316600581111561134b57fe5b905060006008848161135957fe5b049050808284965096509650505050509250925092565b600061137a611cea565b60006113868787611b56565b9150915061139385611b9e565b156113bb576001846001600481106113a757fe5b6020020181815101915081815250506113fe565b8185600001819052506000846001600481106113d357fe5b602002015111156113fd576001846001600481106113ed57fe5b6020020181815103915081815250505b5b8092505050949350505050565b60006060600061141b8787611ba9565b9150915061142885611b9e565b156114505760018460026004811061143c57fe5b602002018181510191508181525050611493565b81856020018190525060008460026004811061146857fe5b602002015111156114925760018460026004811061148257fe5b6020020181815103915081815250505b5b8092505050949350505050565b60008060006114af8787611bc2565b915091506114bc85611b9e565b156114e4576001846003600481106114d057fe5b60200201818151019150818152505061152e565b8185604001901515908115158152505060008460036004811061150357fe5b6020020151111561152d5760018460036004811061151d57fe5b6020020181815103915081815250505b5b8092505050949350505050565b611543611cc1565b6000905090565b60008060006115598787611bfe565b9150915061156685611c21565b1561158e5760018460016009811061157a57fe5b6020020181815101915081815250506115e0565b81856000019063ffffffff16908163ffffffff16815250506000846001600981106115b557fe5b602002015111156115df576001846001600981106115cf57fe5b6020020181815103915081815250505b5b8092505050949350505050565b60008060006115fc8787611bfe565b9150915061160985611c21565b156116315760018460026009811061161d57fe5b602002018181510191508181525050611683565b81856020019063ffffffff16908163ffffffff168152505060008460026009811061165857fe5b602002015111156116825760018460026009811061167257fe5b6020020181815103915081815250505b5b8092505050949350505050565b600080600061169f8787611bfe565b915091506116ac85611c21565b156116d4576001846003600981106116c057fe5b602002018181510191508181525050611726565b81856040019063ffffffff16908163ffffffff16815250506000846003600981106116fb57fe5b602002015111156117255760018460036009811061171557fe5b6020020181815103915081815250505b5b8092505050949350505050565b6000606060006117438787611ba9565b9150915061175085611c21565b156117785760018460046009811061176457fe5b6020020181815101915081815250506117bb565b81856060018190525060008460046009811061179057fe5b602002015111156117ba576001846004600981106117aa57fe5b6020020181815103915081815250505b5b8092505050949350505050565b6000606060006117d88787611ba9565b915091506117e585611c21565b1561180d576001846005600981106117f957fe5b602002018181510191508181525050611850565b81856080018190525060008460056009811061182557fe5b6020020151111561184f5760018460056009811061183f57fe5b6020020181815103915081815250505b5b8092505050949350505050565b60006060600061186d8787611ba9565b9150915061187a85611c21565b156118a25760018460066009811061188e57fe5b6020020181815101915081815250506118e5565b818560a001819052506000846006600981106118ba57fe5b602002015111156118e4576001846006600981106118d457fe5b6020020181815103915081815250505b5b8092505050949350505050565b6000606060006119028787611ba9565b9150915061190f85611c21565b156119375760018460076009811061192357fe5b60200201818151019150818152505061197a565b818560c0018190525060008460076009811061194f57fe5b602002015111156119795760018460076009811061196957fe5b6020020181815103915081815250505b5b8092505050949350505050565b6000606060006119978787611ba9565b915091506119a485611c21565b156119cc576001846008600981106119b857fe5b602002018181510191508181525050611a0f565b818560e001819052506000846008600981106119e457fe5b60200201511115611a0e576001846008600981106119fe57fe5b6020020181815103915081815250505b5b8092505050949350505050565b611a24611cea565b6000905090565b6000611a3c8263ffffffff16611a5f565b9050919050565b6000611a568463ffffffff168484611a8c565b90509392505050565b600080600190505b60008160070260020a84101415611a8357600181019050611a67565b80915050919050565b60008060009050838301607f8616607f600760020a8804165b60008082141415611ae657816080178353600183019250600184019350607f8460070260020a8904169150607f6001850160070260020a8904169050611aa5565b818353600184019350505050809150509392505050565b60008060008090506000809050608086860196505b6080811660801415611b4657865160001a90508160070260020a81607f160283179250600182019150600187019650611b12565b5081819350935050509250929050565b611b5e611cea565b6000806000611b6d8686611afd565b915091508086019550611b7e611cea565b611b89878785610d60565b50905080828401945094505050509250929050565b600081159050919050565b60606000611bb78484611c2c565b915091509250929050565b600080600080611bd28686611afd565b915091506000821415611bed57600081935093505050611bf7565b6001819350935050505b9250929050565b600080600080611c0e8686611afd565b9150915081819350935050509250929050565b600081159050919050565b60606000806000611c3d8686611afd565b915091506060826040519080825280601f01601f191660200182016040528015611c765781602001600182028038833980820191505090505b509050602081016000838989010198505b84811015611cad57885160001a8253600189019850600182019150600181019050611c87565b505080838301945094505050509250929050565b6040518060600160405280611cd4611d86565b8152602001606081526020016000151581525090565b604051806101000160405280600063ffffffff168152602001600063ffffffff168152602001600063ffffffff16815260200160608152602001606081526020016060815260200160608152602001606081525090565b6040518060800160405280600490602082028038833980820191505090505090565b604051806101200160405280600990602082028038833980820191505090505090565b604051806101000160405280600063ffffffff168152602001600063ffffffff168152602001600063ffffffff1681526020016060815260200160608152602001606081526020016060815260200160608152509056fea265627a7a723158207f215ed699b4119bec4f8f3c8505c1b9edef2b07cb9e615a8a0f18f6783a170364736f6c63430005100032",
  "source": "pragma solidity >=0.4.25 <0.7.0;\n\nimport \"./Transaction_pb.sol\";\n\n\ncontract IdenaTransaction {\n    function parseTx(bytes memory data)\n        public\n        pure\n        returns (\n            bytes memory to,\n            bytes memory amount,\n            bytes memory maxFee,\n            bytes memory tips,\n            bytes memory payload,\n            bytes memory signature,\n            bool useRlp\n        )\n    {\n        pb_ProtoTransaction.Data memory result;\n        result = pb_ProtoTransaction.decode(data);\n        return (\n            result.data.to,\n            result.data.amount,\n            result.data.maxFee,\n            result.data.tips,\n            result.data.payload,\n            result.signature,\n            result.useRlp\n        );\n    }\n\n    function parseTxData(bytes memory data)\n        public\n        pure\n        returns (\n            uint32,\n            uint32,\n            uint32\n        )\n    {\n        pb_ProtoTransaction_Data.Data memory result;\n        result = pb_ProtoTransaction_Data.decode(data);\n        return (result.nonce, result.epoch, result.txType);\n    }\n\n    function createTxData(\n        uint32 nonce,\n        uint32 epoch,\n        uint32 txType\n    ) public pure returns (bytes memory) {\n        pb_ProtoTransaction.Data memory result;\n        result.data.nonce = nonce;\n        result.data.epoch = epoch;\n        result.data.txType = txType;\n\n        return pb_ProtoTransaction.encode(result);\n    }\n\n    function checkSignature(address a, bytes memory data)\n        public\n        pure\n        returns (bool)\n    {\n        pb_ProtoTransaction.Data memory result;\n        result = pb_ProtoTransaction.decode(data);\n\n        // decode internal data to bytes, to calculate hash\n        bytes memory internalBytes = pb_ProtoTransaction_Data.encode(\n            result.data\n        );\n\n        bytes32 h = keccak256(internalBytes);\n        (bytes32 r, bytes32 s, uint8 v) = splitSignature(result.signature);\n\n        return a == ecrecover(h, v + 27, r, s);\n    }\n\n    function splitSignature(bytes memory sig)\n        public\n        pure\n        returns (\n            bytes32 r,\n            bytes32 s,\n            uint8 v\n        )\n    {\n        require(sig.length == 65, \"invalid signature length\");\n\n        assembly {\n            /*\n            First 32 bytes stores the length of the signature\n\n            add(sig, 32) = pointer of sig + 32\n            effectively, skips first 32 bytes of signature\n\n            mload(p) loads next 32 bytes starting at the memory address p into memory\n            */\n\n            // first 32 bytes, after the length prefix\n            r := mload(add(sig, 32))\n            // second 32 bytes\n            s := mload(add(sig, 64))\n            // final byte (first byte of the next 32 bytes)\n            v := byte(0, mload(add(sig, 96)))\n        }\n\n        // implicitly return (r, s, v)\n    }\n}\n",
  "sourcePath": "D:/projects/idena/idena-examples/solidity-protobuf-transaction/contracts/IdenaTransaction.sol",
  "compiler": {
    "name": "solc",
    "version": "0.5.16+commit.9c3226ce.Emscripten.clang"
  },
  "schemaVersion": "3.0.22",
  "updatedAt": "2020-06-09T12:55:50.634Z",
  "devdoc": {
    "methods": {}
  },
  "userdoc": {
    "methods": {}
  }
}