{
  "contractName": "IdenaHumanVoting",
  "abi": [
    {
      "inputs": [
        {
          "internalType": "bytes32",
          "name": "_rootHash",
          "type": "bytes32"
        },
        {
          "internalType": "uint8",
          "name": "_maxValue",
          "type": "uint8"
        },
        {
          "internalType": "uint256",
          "name": "_duration",
          "type": "uint256"
        }
      ],
      "stateMutability": "nonpayable",
      "type": "constructor"
    },
    {
      "inputs": [
        {
          "internalType": "bytes",
          "name": "data",
          "type": "bytes"
        },
        {
          "internalType": "uint8",
          "name": "value",
          "type": "uint8"
        },
        {
          "internalType": "bytes",
          "name": "signature",
          "type": "bytes"
        }
      ],
      "name": "vote",
      "outputs": [],
      "stateMutability": "nonpayable",
      "type": "function"
    },
    {
      "inputs": [],
      "name": "finish",
      "outputs": [
        {
          "internalType": "uint8",
          "name": "",
          "type": "uint8"
        }
      ],
      "stateMutability": "nonpayable",
      "type": "function"
    },
    {
      "inputs": [
        {
          "internalType": "bytes",
          "name": "sig",
          "type": "bytes"
        }
      ],
      "name": "splitSignature",
      "outputs": [
        {
          "internalType": "bytes32",
          "name": "r",
          "type": "bytes32"
        },
        {
          "internalType": "bytes32",
          "name": "s",
          "type": "bytes32"
        },
        {
          "internalType": "uint8",
          "name": "v",
          "type": "uint8"
        }
      ],
      "stateMutability": "pure",
      "type": "function"
    }
  ],
  "bytecode": "0x60806040523480156200001157600080fd5b5060405162002c6f38038062002c6f833981810160405281019062000037919062000157565b8260008190555081600160006101000a81548160ff021916908360ff160217905550806003819055506000600460006101000a81548160ff02191690836001811115620000895762000088620001b3565b5b021790555043600281905550505050620001e2565b600080fd5b6000819050919050565b620000b881620000a3565b8114620000c457600080fd5b50565b600081519050620000d881620000ad565b92915050565b600060ff82169050919050565b620000f681620000de565b81146200010257600080fd5b50565b6000815190506200011681620000eb565b92915050565b6000819050919050565b62000131816200011c565b81146200013d57600080fd5b50565b600081519050620001518162000126565b92915050565b6000806000606084860312156200017357620001726200009e565b5b60006200018386828701620000c7565b9350506020620001968682870162000105565b9250506040620001a98682870162000140565b9150509250925092565b7f4e487b7100000000000000000000000000000000000000000000000000000000600052602160045260246000fd5b612a7d80620001f26000396000f3fe608060405234801561001057600080fd5b50600436106100415760003560e01c8063a7bb580314610046578063c7e777cb14610078578063d56b288914610094575b600080fd5b610060600480360381019061005b9190612078565b6100b2565b60405161006f939291906120f6565b60405180910390f35b610092600480360381019061008d9190612159565b61011a565b005b61009c610387565b6040516100a991906121e4565b60405180910390f35b600080600060418451146100fb576040517f08c379a00000000000000000000000000000000000000000000000000000000081526004016100f29061225c565b60405180910390fd5b6020840151925060408401519150606084015160001a90509193909250565b6000600181111561012e5761012d61227c565b5b600460009054906101000a900460ff1660018111156101505761014f61227c565b5b14610190576040517f08c379a0000000000000000000000000000000000000000000000000000000008152600401610187906122f7565b60405180910390fd5b600160009054906101000a900460ff1660ff168260ff1611156101e8576040517f08c379a00000000000000000000000000000000000000000000000000000000081526004016101df90612363565b60405180910390fd5b60006101f68430858561051e565b9050600560008273ffffffffffffffffffffffffffffffffffffffff1673ffffffffffffffffffffffffffffffffffffffff16815260200190815260200160002060009054906101000a900460ff1615610285576040517f08c379a000000000000000000000000000000000000000000000000000000000815260040161027c906123cf565b60405180910390fd5b61029260005485836105fa565b6102d1576040517f08c379a00000000000000000000000000000000000000000000000000000000081526004016102c89061243b565b60405180910390fd5b6001600560008373ffffffffffffffffffffffffffffffffffffffff1673ffffffffffffffffffffffffffffffffffffffff16815260200190815260200160002060006101000a81548160ff021916908315150217905550600660008460ff1660ff168152602001908152602001600020600081819054906101000a900463ffffffff16809291906103629061249a565b91906101000a81548163ffffffff021916908363ffffffff1602179055505050505050565b60004360035460025461039a91906124d1565b106103da576040517f08c379a00000000000000000000000000000000000000000000000000000000081526004016103d190612573565b60405180910390fd5b600060018111156103ee576103ed61227c565b5b600460009054906101000a900460ff1660018111156104105761040f61227c565b5b14610450576040517f08c379a0000000000000000000000000000000000000000000000000000000008152600401610447906122f7565b60405180910390fd5b60008060005b600160009054906101000a900460ff1660ff168160ff16116104cf576000600660008360ff1660ff16815260200190815260200160002060009054906101000a900463ffffffff1690508263ffffffff168163ffffffff1611156104bb578092508193505b5080806104c790612593565b915050610456565b5081600760006101000a81548160ff021916908360ff1602179055506001600460006101000a81548160ff021916908360018111156105115761051061227c565b5b0217905550819250505090565b600080858585604051602001610536939291906126e7565b6040516020818303038152906040528051906020012090508060405160200161055f9190612741565b6040516020818303038152906040528051906020012090506000806000610585866100b2565b9250925092506000600185601b8461059d919061275c565b8686604051600081526020016040526040516105bc9493929190612793565b6020604051602081039080840390855afa1580156105de573d6000803e3d6000fd5b5050506020604051035190508095505050505050949350505050565b6000610604611d13565b61060d84610af2565b90506000816020015190506106258160000151610cdb565b73ffffffffffffffffffffffffffffffffffffffff168473ffffffffffffffffffffffffffffffffffffffff161461066257600092505050610aeb565b61066a611d3a565b6106778360000151610e37565b905060006002846000015160405161068f91906127d8565b602060405180830381855afa1580156106ac573d6000803e3d6000fd5b5050506040513d601f19601f820116820180604052508101906106cf919061281b565b9050600283602001516040516106e591906127d8565b602060405180830381855afa158015610702573d6000803e3d6000fd5b5050506040513d601f19601f82011682018060405250810190610725919061281b565b6002826040516020016107389190612741565b60405160208183030381529060405260405161075491906127d8565b602060405180830381855afa158015610771573d6000803e3d6000fd5b5050506040513d601f19601f82011682018060405250810190610794919061281b565b146107a6576000945050505050610aeb565b60006107b26000611447565b6107bc6002611447565b6107e16001876040015167ffffffffffffffff16901b67ffffffffffffffff16611447565b6107ef876000015151611447565b8760000151610802896020015151611447565b896020015160405160200161081d9796959493929190612848565b6040516020818303038152906040529050600060028260405161084091906127d8565b602060405180830381855afa15801561085d573d6000803e3d6000fd5b5050506040513d601f19601f82011682018060405250810190610880919061281b565b905060005b866040015151811015610ac857600087604001516001838a60400151516108ac91906128ad565b6108b691906128ad565b815181106108c7576108c66128e1565b5b602002602001015190506000836040516020016108e49190612741565b6040516020818303038152906040529050600082606001515111156109b4576109206001836000015163ffffffff16901b63ffffffff16611447565b6109456001846020015167ffffffffffffffff16901b67ffffffffffffffff16611447565b61096a6001856040015167ffffffffffffffff16901b67ffffffffffffffff16611447565b610978856060015151611447565b85606001516109878651611447565b8660405160200161099e9796959493929190612848565b6040516020818303038152906040529450610a61565b6109d16001836000015163ffffffff16901b63ffffffff16611447565b6109f66001846020015167ffffffffffffffff16901b67ffffffffffffffff16611447565b610a1b6001856040015167ffffffffffffffff16901b67ffffffffffffffff16611447565b610a258451611447565b84610a34876080015151611447565b8760800151604051602001610a4f9796959493929190612848565b60405160208183030381529060405294505b600285604051610a7191906127d8565b602060405180830381855afa158015610a8e573d6000803e3d6000fd5b5050506040513d601f19601f82011682018060405250810190610ab1919061281b565b935050508080610ac090612910565b915050610885565b50808a148015610ae257506008846060015163ffffffff16145b96505050505050505b9392505050565b610afa611d13565b6000610b058361150e565b90506000610b1d60038361152f90919063ffffffff16565b905080600381518110610b3357610b326128e1565b5b602002602001015167ffffffffffffffff811115610b5457610b53611f4d565b5b604051908082528060200260200182016040528015610b8d57816020015b610b7a611e2f565b815260200190600190039081610b725790505b508360400181905250600081600381518110610bac57610bab6128e1565b5b6020026020010181815250506000805b610bc584611606565b15610cd257610bd38461161b565b8092508193505050600015610be757610ccd565b6001821415610c0657610bf984611658565b8560000181905250610ccc565b6002821415610c2d57610c20610c1b85611658565b611739565b8560200181905250610ccb565b6003821415610cb657610c47610c4285611658565b611815565b856040015184600381518110610c6057610c5f6128e1565b5b602002602001015181518110610c7957610c786128e1565b5b602002602001018190525082600381518110610c9857610c976128e1565b5b602002602001018051809190610cad90612910565b81525050610cca565b610cc9818561195790919063ffffffff16565b5b5b5b5b610bbc565b50505050919050565b600080600260f81b83600081518110610cf757610cf66128e1565b5b602001015160f81c60f81b7effffffffffffffffffffffffffffffffffffffffffffffffffffffffffffff19161415610e2e57600060018451610d3a91906128ad565b67ffffffffffffffff811115610d5357610d52611f4d565b5b6040519080825280601f01601f191660200182016040528015610d855781602001600182028036833780820191505090505b5090506000600190505b84518160ff161015610e2057848160ff1681518110610db157610db06128e1565b5b602001015160f81c60f81b82600183610dca9190612959565b60ff1681518110610dde57610ddd6128e1565b5b60200101907effffffffffffffffffffffffffffffffffffffffffffffffffffffffffffff1916908160001a9053508080610e1890612593565b915050610d8f565b50610e2a81611a0c565b9150505b80915050919050565b610e3f611d3a565b6000610e4a8361150e565b90506000610e6260168361152f90919063ffffffff16565b905080600981518110610e7857610e776128e1565b5b602002602001015167ffffffffffffffff811115610e9957610e98611f4d565b5b604051908082528060200260200182016040528015610ed257816020015b610ebf611e78565b815260200190600190039081610eb75790505b50836101000181905250600081600981518110610ef257610ef16128e1565b5b60200260200101818152505080600c81518110610f1257610f116128e1565b5b602002602001015167ffffffffffffffff811115610f3357610f32611f4d565b5b604051908082528060200260200182016040528015610f6c57816020015b610f59611e98565b815260200190600190039081610f515790505b50836101600181905250600081600c81518110610f8c57610f8b6128e1565b5b6020026020010181815250506000805b610fa584611606565b1561143e57610fb38461161b565b8092508193505050600015610fc757611439565b6001821415610fe657610fd984611658565b8560000181905250611438565b600282141561101457610ff884611a1a565b856020019063ffffffff16908163ffffffff1681525050611437565b60038214156110425761102684611a1a565b856040019063ffffffff16908163ffffffff1681525050611436565b60048214156110705761105484611a1a565b856060019063ffffffff16908163ffffffff1681525050611435565b600582141561109e5761108284611a1a565b856080019063ffffffff16908163ffffffff1681525050611434565b60068214156110cc576110b084611a1a565b8560a0019063ffffffff16908163ffffffff1681525050611433565b60078214156110eb576110de84611658565b8560c00181905250611432565b6008821415611119576110fd84611a1a565b8560e0019063ffffffff16908163ffffffff1681525050611431565b60098214156111a35761113361112e85611658565b611ab9565b8561010001518460098151811061114d5761114c6128e1565b5b602002602001015181518110611166576111656128e1565b5b602002602001018190525082600981518110611185576111846128e1565b5b60200260200101805180919061119a90612910565b81525050611430565b600a8214156111d2576111b584611a1a565b85610120019063ffffffff16908163ffffffff168152505061142f565b600b8214156111f2576111e484611658565b85610140018190525061142e565b600c82141561127c5761120c61120785611658565b611b6d565b85610160015184600c81518110611226576112256128e1565b5b60200260200101518151811061123f5761123e6128e1565b5b602002602001018190525082600c8151811061125e5761125d6128e1565b5b60200260200101805180919061127390612910565b8152505061142d565b600d8214156112a45761129661129185611658565b611c12565b85610180018190525061142c565b600e8214156112c4576112b684611658565b856101a0018190525061142b565b600f8214156112f3576112d684611a1a565b856101c0019063ffffffff16908163ffffffff168152505061142a565b60108214156113225761130584611a1a565b856101e0019063ffffffff16908163ffffffff1681525050611429565b60118214156113425761133484611658565b856102000181905250611428565b60128214156113625761135484611658565b856102200181905250611427565b60138214156113825761137484611658565b856102400181905250611426565b60148214156113b15761139484611a1a565b85610260019063ffffffff16908163ffffffff1681525050611425565b60158214156113e0576113c384611a1a565b85610280019063ffffffff16908163ffffffff1681525050611424565b601682141561140f576113f284611a1a565b856102a0019063ffffffff16908163ffffffff1681525050611423565b611422818561195790919063ffffffff16565b5b5b5b5b5b5b5b5b5b5b5b5b5b5b5b5b5b5b5b5b5b5b5b610f9c565b50505050919050565b6060600061145483611ce6565b67ffffffffffffffff81111561146d5761146c611f4d565b5b6040519080825280601f01601f19166020018201604052801561149f5781602001600182028036833780820191505090505b509050600060208201607f8516607f600760020a8704165b600080821414156114f857816080178353600183019250600184019350607f8460070260020a8804169150607f6001850160070260020a88041690506114b7565b8183536001840193505050508192505050919050565b611516611eb2565b8181602001819052506000816000018181525050919050565b606060008360000151905060018361154791906124d1565b67ffffffffffffffff8111156115605761155f611f4d565b5b60405190808252806020026020018201604052801561158e5781602001602082028036833780820191505090505b5091506000805b61159e86611606565b156115f3576115ac8661161b565b809250819350505060018483815181106115c9576115c86128e1565b5b602002602001018181516115dd91906124d1565b915081815250506115ee8682611957565b611595565b8286600001818152505050505092915050565b60008160200151518260000151109050919050565b600080600061162984611a1a565b905060088161163891906129bc565b92506007811660058111156116505761164f61227c565b5b915050915091565b6060600061166583611a1a565b9050600081846000015161167991906124d1565b905083602001515181111561168d57600080fd5b8167ffffffffffffffff8111156116a7576116a6611f4d565b5b6040519080825280601f01601f1916602001820160405280156116d95781602001600182028036833780820191505090505b50925060008460200151905060008086600001519050602086019150806020840101905060005b8581101561172457808201518184015260208161171d91906124d1565b9050611700565b50838760000181815250505050505050919050565b611741611ecc565b600061174c8361150e565b90506000805b61175b83611606565b1561180d576117698361161b565b809250819350505060001561177d57611808565b600182141561179c5761178f83611658565b8460000181905250611807565b60028214156117bb576117ae83611658565b8460200181905250611806565b60038214156117f1576117cd83611a1a565b846040019067ffffffffffffffff16908167ffffffffffffffff1681525050611805565b611804818461195790919063ffffffff16565b5b5b5b5b611752565b505050919050565b61181d611e2f565b60006118288361150e565b90506000805b61183783611606565b1561194f576118458361161b565b80925081935050506000156118595761194a565b60018214156118875761186b83611a1a565b846000019063ffffffff16908163ffffffff1681525050611949565b60028214156118bd5761189983611a1a565b846020019067ffffffffffffffff16908167ffffffffffffffff1681525050611948565b60038214156118f3576118cf83611a1a565b846040019067ffffffffffffffff16908167ffffffffffffffff1681525050611947565b60048214156119125761190583611658565b8460600181905250611946565b60058214156119315761192483611658565b8460800181905250611945565b611944818461195790919063ffffffff16565b5b5b5b5b5b5b61182e565b505050919050565b6000600581111561196b5761196a61227c565b5b81600581111561197e5761197d61227c565b5b14156119935761198d82611a1a565b50611a08565b600260058111156119a7576119a661227c565b5b8160058111156119ba576119b961227c565b5b1415611a025760006119cb83611a1a565b905080836000018181516119df91906124d1565b91508181525050826020015151836000015111156119fc57600080fd5b50611a07565b600080fd5b5b5050565b600060148201519050919050565b60008060008360200151905083600001519250826020820101519150600080935060005b600a811015611aae5783811a9150600781611a5991906129ed565b607f8316901b851794506000608083161415611a9d57600181611a7c91906124d1565b86600001818151611a8d91906124d1565b9150818152505050505050611ab4565b80611aa790612910565b9050611a3e565b50600080fd5b919050565b611ac1611e78565b6000611acc8361150e565b90506000805b611adb83611606565b15611b6557611ae98361161b565b8092508193505050600015611afd57611b60565b6001821415611b1c57611b0f83611658565b8460000181905250611b5f565b6002821415611b4a57611b2e83611a1a565b846020019063ffffffff16908163ffffffff1681525050611b5e565b611b5d818461195790919063ffffffff16565b5b5b5b611ad2565b505050919050565b611b75611e98565b6000611b808361150e565b90506000805b611b8f83611606565b15611c0a57611b9d8361161b565b8092508193505050600015611bb157611c05565b6001821415611bd057611bc383611658565b8460000181905250611c04565b6002821415611bef57611be283611658565b8460200181905250611c03565b611c02818461195790919063ffffffff16565b5b5b5b611b86565b505050919050565b611c1a611ef7565b6000611c258361150e565b90506000805b611c3483611606565b15611cde57611c428361161b565b8092508193505050600015611c5657611cd9565b6001821415611c7557611c6883611658565b8460000181905250611cd8565b6002821415611c9457611c8783611658565b8460200181905250611cd7565b6003821415611cc257611ca683611a1a565b846040019063ffffffff16908163ffffffff1681525050611cd6565b611cd5818461195790919063ffffffff16565b5b5b5b5b611c2b565b505050919050565b600080600190505b60008160070260020a84101415611d0a57600181019050611cee565b80915050919050565b604051806060016040528060608152602001611d2d611ecc565b8152602001606081525090565b604051806102c0016040528060608152602001600063ffffffff168152602001600063ffffffff168152602001600063ffffffff168152602001600063ffffffff168152602001600063ffffffff16815260200160608152602001600063ffffffff16815260200160608152602001600063ffffffff1681526020016060815260200160608152602001611dcc611ef7565b815260200160608152602001600063ffffffff168152602001600063ffffffff168152602001606081526020016060815260200160608152602001600063ffffffff168152602001600063ffffffff168152602001600063ffffffff1681525090565b6040518060a00160405280600063ffffffff168152602001600067ffffffffffffffff168152602001600067ffffffffffffffff16815260200160608152602001606081525090565b604051806040016040528060608152602001600063ffffffff1681525090565b604051806040016040528060608152602001606081525090565b604051806040016040528060008152602001606081525090565b60405180606001604052806060815260200160608152602001600067ffffffffffffffff1681525090565b60405180606001604052806060815260200160608152602001600063ffffffff1681525090565b6000604051905090565b600080fd5b600080fd5b600080fd5b600080fd5b6000601f19601f8301169050919050565b7f4e487b7100000000000000000000000000000000000000000000000000000000600052604160045260246000fd5b611f8582611f3c565b810181811067ffffffffffffffff82111715611fa457611fa3611f4d565b5b80604052505050565b6000611fb7611f1e565b9050611fc38282611f7c565b919050565b600067ffffffffffffffff821115611fe357611fe2611f4d565b5b611fec82611f3c565b9050602081019050919050565b82818337600083830152505050565b600061201b61201684611fc8565b611fad565b90508281526020810184848401111561203757612036611f37565b5b612042848285611ff9565b509392505050565b600082601f83011261205f5761205e611f32565b5b813561206f848260208601612008565b91505092915050565b60006020828403121561208e5761208d611f28565b5b600082013567ffffffffffffffff8111156120ac576120ab611f2d565b5b6120b88482850161204a565b91505092915050565b6000819050919050565b6120d4816120c1565b82525050565b600060ff82169050919050565b6120f0816120da565b82525050565b600060608201905061210b60008301866120cb565b61211860208301856120cb565b61212560408301846120e7565b949350505050565b612136816120da565b811461214157600080fd5b50565b6000813590506121538161212d565b92915050565b60008060006060848603121561217257612171611f28565b5b600084013567ffffffffffffffff8111156121905761218f611f2d565b5b61219c8682870161204a565b93505060206121ad86828701612144565b925050604084013567ffffffffffffffff8111156121ce576121cd611f2d565b5b6121da8682870161204a565b9150509250925092565b60006020820190506121f960008301846120e7565b92915050565b600082825260208201905092915050565b7f696e76616c6964207369676e6174757265206c656e6774680000000000000000600082015250565b60006122466018836121ff565b915061225182612210565b602082019050919050565b6000602082019050818103600083015261227581612239565b9050919050565b7f4e487b7100000000000000000000000000000000000000000000000000000000600052602160045260246000fd5b7f766f74696e6720616c72656164792066696e6973686564000000000000000000600082015250565b60006122e16017836121ff565b91506122ec826122ab565b602082019050919050565b60006020820190508181036000830152612310816122d4565b9050919050565b7f746f6f20686967682076616c7565000000000000000000000000000000000000600082015250565b600061234d600e836121ff565b915061235882612317565b602082019050919050565b6000602082019050818103600083015261237c81612340565b9050919050565b7f766f74657220616c726561647920766f74656400000000000000000000000000600082015250565b60006123b96013836121ff565b91506123c482612383565b602082019050919050565b600060208201905081810360008301526123e8816123ac565b9050919050565b7f766f746572206973206e6f742068756d616e0000000000000000000000000000600082015250565b60006124256012836121ff565b9150612430826123ef565b602082019050919050565b6000602082019050818103600083015261245481612418565b9050919050565b7f4e487b7100000000000000000000000000000000000000000000000000000000600052601160045260246000fd5b600063ffffffff82169050919050565b60006124a58261248a565b915063ffffffff8214156124bc576124bb61245b565b5b600182019050919050565b6000819050919050565b60006124dc826124c7565b91506124e7836124c7565b9250827fffffffffffffffffffffffffffffffffffffffffffffffffffffffffffffffff0382111561251c5761251b61245b565b5b828201905092915050565b7f746f6f206561726c7920746f2066696e69736820766f74696e67000000000000600082015250565b600061255d601a836121ff565b915061256882612527565b602082019050919050565b6000602082019050818103600083015261258c81612550565b9050919050565b600061259e826120da565b915060ff8214156125b2576125b161245b565b5b600182019050919050565b600081519050919050565b600081905092915050565b60005b838110156125f15780820151818401526020810190506125d6565b83811115612600576000848401525b50505050565b6000612611826125bd565b61261b81856125c8565b935061262b8185602086016125d3565b80840191505092915050565b600073ffffffffffffffffffffffffffffffffffffffff82169050919050565b600061266282612637565b9050919050565b60008160601b9050919050565b600061268182612669565b9050919050565b600061269382612676565b9050919050565b6126ab6126a682612657565b612688565b82525050565b60008160f81b9050919050565b60006126c9826126b1565b9050919050565b6126e16126dc826120da565b6126be565b82525050565b60006126f38286612606565b91506126ff828561269a565b60148201915061270f82846126d0565b600182019150819050949350505050565b6000819050919050565b61273b612736826120c1565b612720565b82525050565b600061274d828461272a565b60208201915081905092915050565b6000612767826120da565b9150612772836120da565b92508260ff038211156127885761278761245b565b5b828201905092915050565b60006080820190506127a860008301876120cb565b6127b560208301866120e7565b6127c260408301856120cb565b6127cf60608301846120cb565b95945050505050565b60006127e48284612606565b915081905092915050565b6127f8816120c1565b811461280357600080fd5b50565b600081519050612815816127ef565b92915050565b60006020828403121561283157612830611f28565b5b600061283f84828501612806565b91505092915050565b6000612854828a612606565b91506128608289612606565b915061286c8288612606565b91506128788287612606565b91506128848286612606565b91506128908285612606565b915061289c8284612606565b915081905098975050505050505050565b60006128b8826124c7565b91506128c3836124c7565b9250828210156128d6576128d561245b565b5b828203905092915050565b7f4e487b7100000000000000000000000000000000000000000000000000000000600052603260045260246000fd5b600061291b826124c7565b91507fffffffffffffffffffffffffffffffffffffffffffffffffffffffffffffffff82141561294e5761294d61245b565b5b600182019050919050565b6000612964826120da565b915061296f836120da565b9250828210156129825761298161245b565b5b828203905092915050565b7f4e487b7100000000000000000000000000000000000000000000000000000000600052601260045260246000fd5b60006129c7826124c7565b91506129d2836124c7565b9250826129e2576129e161298d565b5b828204905092915050565b60006129f8826124c7565b9150612a03836124c7565b9250817fffffffffffffffffffffffffffffffffffffffffffffffffffffffffffffffff0483118215151615612a3c57612a3b61245b565b5b82820290509291505056fea2646970667358221220c2525590b53730cb0557dfa387beee119bd5fcabddf4c66bb638da5541faf8f964736f6c634300080a0033",
  "immutableReferences": {},
  "source": "// SPDX-License-Identifier: MIT\r\npragma solidity >=0.4.22 <0.9.0;\r\n\r\nimport \"./PbModels.sol\";\r\n\r\ncontract IdenaHumanVoting {\r\n\r\n    enum Status {OPEN, FINISHED}\r\n\r\n    bytes32 rootHash;\r\n    uint8 maxValue;\r\n    uint startBlock;\r\n    uint duration;\r\n\r\n    Status status;\r\n    mapping(address => bool) voters;\r\n    mapping(uint8 => uint32) scores;\r\n    uint8 winner;\r\n\r\n    constructor(bytes32 _rootHash, uint8 _maxValue, uint _duration) {\r\n        rootHash = _rootHash;\r\n        maxValue = _maxValue;\r\n        duration = _duration;\r\n        status = Status.OPEN;\r\n        startBlock = block.number;\r\n    }\r\n\r\n    function vote(bytes memory data, uint8 value, bytes memory signature) public {\r\n        require(status == Status.OPEN, \"voting already finished\");\r\n        require(value <= maxValue, \"too high value\");\r\n        address _signatureAddress = signatureAddress(data, address(this), value, signature);\r\n        require(!voters[_signatureAddress], \"voter already voted\");\r\n        require(isHuman(rootHash, data, _signatureAddress), \"voter is not human\");\r\n        voters[_signatureAddress] = true;\r\n        scores[value]++;\r\n    }\r\n\r\n    function finish() public returns (uint8) {\r\n        require(startBlock + duration < block.number, \"too early to finish voting\");\r\n        require(status == Status.OPEN, \"voting already finished\");\r\n        uint8 _winner;\r\n        uint32 winnerScore;\r\n        for (uint8 value = 0; value <= maxValue; value++) {\r\n            uint32 score = scores[value];\r\n            if (score > winnerScore) {\r\n                winnerScore = score;\r\n                _winner = value;\r\n            }\r\n        }\r\n        winner = _winner;\r\n        status = Status.FINISHED;\r\n        return _winner;\r\n    }\r\n\r\n    function signatureAddress(bytes memory data, address votingAddress, uint8 value, bytes memory signature) private pure returns (address) {\r\n        bytes32 h = keccak256(abi.encodePacked(data, votingAddress, value));\r\n        h = keccak256(abi.encodePacked(h));\r\n        (bytes32 r, bytes32 s, uint8 v) = splitSignature(signature);\r\n        address signer = ecrecover(h, v + 27, r, s);\r\n        return signer;\r\n    }\r\n\r\n    function isHuman(bytes32 root, bytes memory data, address identityAddress) private pure returns (bool) {\r\n        PbModels.ValueWithProof memory valueWithProof;\r\n        valueWithProof = PbModels.decValueWithProof(data);\r\n        PbModels.ProofLeaf memory leaf = valueWithProof.leaf;\r\n        if (identityAddress != extractAddress(leaf.key)) {\r\n            return false;\r\n        }\r\n        PbModels.ProtoStateIdentity memory value;\r\n        value = PbModels.decProtoStateIdentity(valueWithProof.value);\r\n        bytes32 valueHash = sha256(valueWithProof.value);\r\n        if (sha256(abi.encodePacked(valueHash)) != sha256(leaf.valueHash)) {\r\n            return false;\r\n        }\r\n        bytes memory bs = abi.encodePacked(\r\n            encodeVarint(0 << 1),\r\n            encodeVarint(1 << 1),\r\n            encodeVarint(leaf.version << 1),\r\n            encodeVarint(leaf.key.length),\r\n            leaf.key,\r\n            encodeVarint(leaf.valueHash.length),\r\n            leaf.valueHash\r\n        );\r\n        bytes32 resHash = sha256(bs);\r\n        for (uint256 i = 0; i < valueWithProof.proof.length; i++) {\r\n            PbModels.ProofItem memory proofItem = valueWithProof.proof[valueWithProof.proof.length - i - 1];\r\n            bytes memory cHash = abi.encodePacked(resHash);\r\n            if (proofItem.left.length > 0) {\r\n                bs = abi.encodePacked(\r\n                    encodeVarint(proofItem.height << 1),\r\n                    encodeVarint(proofItem.size << 1),\r\n                    encodeVarint(proofItem.version << 1),\r\n                    encodeVarint(proofItem.left.length),\r\n                    proofItem.left,\r\n                    encodeVarint(cHash.length),\r\n                    cHash\r\n                );\r\n            } else {\r\n                bs = abi.encodePacked(\r\n                    encodeVarint(proofItem.height << 1),\r\n                    encodeVarint(proofItem.size << 1),\r\n                    encodeVarint(proofItem.version << 1),\r\n                    encodeVarint(cHash.length),\r\n                    cHash,\r\n                    encodeVarint(proofItem.right.length),\r\n                    proofItem.right\r\n                );\r\n            }\r\n            resHash = sha256(bs);\r\n        }\r\n        return root == resHash && value.state == 8;\r\n    }\r\n\r\n    function extractAddress(bytes memory key) private pure returns (address) {\r\n        address res;\r\n        if (key[0] == 0x02) {\r\n            bytes memory addressBytes = new bytes(key.length - 1);\r\n            for (uint8 i = 1; i < key.length; i++) {\r\n                addressBytes[i - 1] = key[i];\r\n            }\r\n            res = bytesToAddress(addressBytes);\r\n        }\r\n        return res;\r\n    }\r\n\r\n    function bytesToAddress(bytes memory bys) private pure returns (address addr) {\r\n        assembly {\r\n            addr := mload(add(bys, 20))\r\n        }\r\n    }\r\n\r\n    function encodeVarint(uint x) private pure returns (bytes memory) {\r\n        bytes memory bs = new bytes(varintSize(x));\r\n        uint sz = 0;\r\n        assembly {\r\n            let bsptr := add(bs, 32)\r\n            let byt := and(x, 0x7f)\r\n            let pbyt := and(div(x, exp(2, 7)), 0x7f)\r\n            for {} eq(eq(pbyt, 0), 0) {} {\r\n                mstore8(bsptr, or(0x80, byt))\r\n                bsptr := add(bsptr, 1)\r\n                sz := add(sz, 1)\r\n                byt := and(div(x, exp(2, mul(7, sz))), 0x7f)\r\n                pbyt := and(div(x, exp(2, mul(7, add(sz, 1)))), 0x7f)\r\n            }\r\n            mstore8(bsptr, byt)\r\n            sz := add(sz, 1)\r\n        }\r\n        return bs;\r\n    }\r\n\r\n    function varintSize(uint i) private pure returns (uint) {\r\n        uint count = 1;\r\n        assembly {\r\n            for {} eq(lt(i, exp(2, mul(7, count))), 0) {} {\r\n                count := add(count, 1)\r\n            }\r\n        }\r\n        return count;\r\n    }\r\n\r\n    function splitSignature(bytes memory sig)\r\n    public\r\n    pure\r\n    returns (\r\n        bytes32 r,\r\n        bytes32 s,\r\n        uint8 v\r\n    )\r\n    {\r\n        require(sig.length == 65, \"invalid signature length\");\r\n\r\n        assembly {\r\n        /*\r\n        First 32 bytes stores the length of the signature\r\n\r\n        add(sig, 32) = pointer of sig + 32\r\n        effectively, skips first 32 bytes of signature\r\n\r\n        mload(p) loads next 32 bytes starting at the memory address p into memory\r\n        */\r\n\r\n        // first 32 bytes, after the length prefix\r\n            r := mload(add(sig, 32))\r\n        // second 32 bytes\r\n            s := mload(add(sig, 64))\r\n        // final byte (first byte of the next 32 bytes)\r\n            v := byte(0, mload(add(sig, 96)))\r\n        }\r\n\r\n        // implicitly return (r, s, v)\r\n    }\r\n\r\n}\r\n",
  "sourcePath": "D:\\work\\idena\\projects\\idena-examples\\solidity-voting\\contracts\\IdenaHumanVoting.sol",
  "compiler": {
    "name": "solc",
    "version": "0.8.10+commit.fc410830.Emscripten.clang"
  },
  "schemaVersion": "3.4.3",
  "updatedAt": "2021-12-17T05:30:00.711Z",
  "devdoc": {
    "kind": "dev",
    "methods": {},
    "version": 1
  },
  "userdoc": {
    "kind": "user",
    "methods": {},
    "version": 1
  }
}